:100000000C945F000C9487000C9487000C944407B8
:100010000C9444070C9444070C9487000C948700BC
:100020000C9487000C9487000C9487000C94870034
:100030000C9487000C9487000C9487000C94870024
:100040000C94BE070C9487000C94F30A0C94250BB7
:100050000C9487000C9487000C9487000C94870004
:100060000C9487000C948700000000080002010037
:100070000003040700000000000000000102040863
:100080001020408001020408102001020408102002
:10009000040404040404040402020202020203032E
:1000A0000303030300000000250028002B000000CC
:1000B0000000240027002A000907550B27071124F8
:1000C0001FBECFEFD8E0DEBFCDBF11E0A0E0B1E0B2
:1000D000EEE1F2E202C005900D92AE3AB107D9F717
:1000E00023E0AEEAB1E001C01D92AF35B207E1F7FF
:1000F00010E0CCEBD0E004C02297FE010E943C0E41
:10010000C83BD107C9F70E94990B0C9402110C94BB
:1001100000008CE492E00E94020D82E592E00E94D1
:10012000020D88E592E00E94020D81E692E00E94B5
:10013000020D87E692E00C94020D0F931F93CF936C
:10014000DF938C010E94AD10CAE4D2E08883C8011D
:1001500001960E94AD108983CE01DF91CF911F914E
:100160000F910895EF92FF920F931F93CF93DF9318
:100170001F92CDB7DEB77C01FC0100811181C8015F
:1001800069830E94AD106981681719F0C8010E9447
:10019000B510C7010F90DF91CF911F910F91FF9084
:1001A000EF900895EF92FF920F931F93CF93DF93F9
:1001B00000D0CDB7DEB77C018B01FB0160819A8353
:1001C0008983CE0101960E94B200F8016181FFEFA0
:1001D000EF1AFF0AFA82E982CE0101960E94B2006C
:1001E000C8010F900F90DF91CF911F910F91FF9059
:1001F000EF900895EF92FF920F931F93CF93DF93A9
:10020000EC011092E5011092E4012EE0E22E22E0D2
:10021000F22E00E010E00C171D07DCF462E070E045
:1002200080E090E00E943708809123010E949A08A4
:10023000D7018D939D937D012091E4013091E501DB
:10024000280F391F3093E5012093E4010F5F1F4F02
:10025000E2CF8091E4019091E501BE010E94C60DBC
:10026000FB017093E3016093E20166EE71E09EE0B2
:10027000E92E92E0F92E80E090E040E050E04C174B
:100280005D07B4F4D7012D913D917D018F01021BD3
:10029000130B980117FF03C0319521953109DB013C
:1002A0002D933D93BD014F5F5F4F820F931FE7CFAB
:1002B00090933B0280933A02BE010E94C60D709358
:1002C000370260933602AB014F5F5F4F4E0F5F1FE7
:1002D000609570956E0F7F1FEEE0F2E080E090E099
:1002E00020E030E02C173D077CF4A081B1814A1753
:1002F0005B071CF0A617B7071CF411821082019649
:100300002F5F3F4F3296EECF9093390280933802A1
:100310001092E5011092E4018EE0E82E82E0F82EC2
:1003200000E010E08091E4019091E5010C171D07B9
:100330009CF4F701219131917F01280F391F3093EF
:10034000E5012093E40162E070E080E090E00E942B
:1003500037080F5F1F4FE6CF2091380230913902E6
:10036000BE01621B730B0E94C60DCB017093E301AB
:100370006093E201DF91CF911F910F91FF90EF9079
:1003800008951F93CF93DF93EC018091B00190917A
:10039000B1019093AF018093AE018AE090E00E949A
:1003A000FA009093B1018093B00140910A015091FD
:1003B0000B01FE01EE0FFF1FEE54FE4F2081318135
:1003C000281B390B37FF03C03195219531092417BC
:1003D00035072CF410923F0210923E0228C0109173
:1003E0004802B0914902A0915F02E2EBF1E020E007
:1003F00030E0BA016150710941915191481B590B8C
:1004000057FF03C05195419551094617570724F4EA
:10041000122FB32FE901A1E02F5F3F4F28313105A3
:1004200059F710934802B0934902A0935F02CE019E
:10043000DF91CF911F910895FF920F931F93CF9358
:10044000DF93EC018831910511F4C0E0D0E0809198
:10045000B0019091B1019093AF018093AE018AE019
:1004600090E00E94FA00BC019093B1018093B0012A
:1004700040910A0150910B01FE01EE0FFF1FEE5457
:10048000FE4F20813181281B390B37FF03C0319586
:10049000219531092417350734F410923F02109248
:1004A0003E02CE014AC0F0904802009149021091EC
:1004B0005F02E2EBF1E0CE0120E030E0DA011197DB
:1004C00041915191461B570B57FF03C051954195E0
:1004D00051094A175B0724F4F22E032FC90111E0DA
:1004E0002F5F3F4F2831310559F7F09248020093B2
:1004F000490210935F028C179D07F9F0883091052F
:10050000E4F420914402309145022F5F3F4F309335
:100510004502209344028C179D0734F421E030E01B
:1005200030933F0220933E02C817D90734F422E0EB
:1005300030E030933F0220933E02DF91CF911F9134
:100540000F91FF9008958F929F92BF92CF92DF926A
:10055000EF92FF920F931F93CF93DF93EC018831BB
:10056000910511F4C0E0D0E08091B0019091B1010B
:100570009093AF018093AE018AE090E00E94FA0070
:10058000BC019093B1018093B00140910A01509158
:100590000B01FE01EE0FFF1FEE54FE4F2081318153
:1005A000281B390B37FF03C03195219531092417DA
:1005B000350734F410923F0210923E02CE0157C02C
:1005C0008090420290904302009114011091150115
:1005D000C0904802D0904902B0905E02E2EBF1E098
:1005E000CE0120E030E07A01A1E0EA1AF108419161
:1005F0005191461B570B57FF03C051954195510927
:100600004E155F053CF46901C9018016910611F48D
:10061000BB24B3942F5F3F4F2831310541F7C0927F
:100620004802D0924902B0925E028C179D07F9F001
:1006300088309105E4F420914402309145022F5F07
:100640003F4F30934502209344028C179D0734F4AA
:1006500021E030E030933F0220933E02C817D907D3
:1006600034F422E030E030933F0220933E02DF91E9
:10067000CF911F910F91FF90EF90DF90CF90BF909F
:100680009F908F90089560914002709141024AE0DE
:1006900050E08EEB92E00E94B60C6CE28EEB92E0A2
:1006A0000E94E60B61E38EEB92E00E94E60B6CE2A7
:1006B0008EEB92E00E94E60B4AE050E060EA7BE5B8
:1006C0008EEB92E00E94B60C6CE28EEB92E00E9400
:1006D000E60B6091160170E04AE050E08EEB92E08C
:1006E0000E94B60C6CE28EEB92E00E94E60B6091E9
:1006F0004802709149024AE050E08EEB92E00E947D
:10070000B60C6CE28EEB92E00E94E60B6091440224
:10071000709145024AE050E08EEB92E00E94B60CE8
:100720006CE28EEB92E00E94E60B609146027091C3
:1007300047024AE050E08EEB92E00E94B60C6CE279
:100740008EEB92E00E94E60B60911401709115010E
:100750004AE050E08EEB92E00C94BE0C809148028F
:10076000909149020E941C0290933D0280933C02AA
:1007700060914002709141024AE050E08EEB92E0BD
:100780000E94B60C6CE28EEB92E00E94E60B60E3F6
:100790008EEB92E00E94E60B6CE28EEB92E00E9400
:1007A000E60B4AE050E060EA7BE58EEB92E00E94C7
:1007B000B60C6CE28EEB92E00E94E60B60911601A3
:1007C00070E04AE050E08EEB92E00E94B60C6CE2E2
:1007D0008EEB92E00E94E60B60913C0270913D022C
:1007E0004AE050E08EEB92E00E94B60C6CE28EEB99
:1007F00092E00E94E60B60914402709145024AE04B
:1008000050E08EEB92E00C94BE0C0F931F938091FE
:100810004802909149020E94A30290933D02809366
:100820003C0280915F028823B9F00E94430310923A
:100830005F020E94080860936D0270936E028093BD
:100840006F02909370028091400290914102019654
:1008500090934102809340020E94080800916D022B
:1008600010916E0220916F0230917002601B710B2B
:10087000820B930B0091190110911A0120911B0119
:1008800030911C010617170728073907A8F40E94A2
:10089000AE030E94080860936D0270936E0280930D
:1008A0006F029093700280914002909141020196F4
:1008B00090934102809340021F910F910895CF932E
:1008C000DF93C2E1D1E06FEF70E088810E94B7084A
:1008D0006091100170911101882777FD8095982F04
:1008E0000E94370860E070E088810E94B70860913C
:1008F0000E0170910F0180910C0190910D01681B08
:10090000790B882777FD8095982FDF91CF910C94F4
:1009100037088091B0019091B1012091AE013091E2
:10092000AF01821B930B875A9F4F833B9105C8F4FD
:100930000E945F046EE170E080E090E00E94370862
:100940008091B0019091B1019093AF018093AE017D
:100950008AE090E00E94FA009093B1018093B00188
:10096000D8CF089510924702109246028091140148
:100970009091150190934302809342028091480226
:10098000909149020E94C1010797DCF40E945F0424
:1009900080914802909149020E94C1012091460233
:1009A000309147022F5F3F4F30934702209346021A
:1009B0002B3531054CF36EE271E08EEB92E00C9436
:1009C000010C80914802909149020E941C02809182
:1009D000480290914902459754F1809148029091C4
:1009E00049020E941C02609117017091180188272A
:1009F00077FD8095982F0E94370857C00E941C02EF
:100A00000E945F0480914602909147020196909364
:100A10004702809346028B3591056CF6809148021F
:100A200090914902019690934902809348028091E7
:100A30004802909149028631910504F3CECF80910E
:100A4000B4019091B5014091DA015091DB01841B12
:100A5000950B97FF03C09195819591092817390748
:100A6000A4F56EE170E080E090E00E94370880918C
:100A70004802909149020E941C020E945F048091EA
:100A8000480290914902019690934902809348024E
:100A9000809146029091470201969093470280937D
:100AA00046028B3591050CF086CF2091B001309134
:100AB000B1018091AE019091AF01281B390B37FF36
:100AC000BECF319521953109BACF809148029091DE
:100AD0004902489721F4109249021092480281E09D
:100AE00080935F028091140190911501019690937B
:100AF0001501809314010895C8EED3E00E94B2045A
:100B00000E94050462E070E080E090E00E943708F7
:100B10002197A1F761E070E080E090E00E94370843
:100B2000F9CFEF92FF920F931F93CF93DF93C4E619
:100B3000D0E08091B0019091B1019093AF0180938A
:100B4000AE018AE090E00E94FA009093B101809398
:100B5000B00160EB71E0CE010E94D2000E945F0400
:100B60002296C439D10529F768E371E08EEB92E053
:100B70000E94010C02EB11E0C6E6D0E0CE010E941B
:100B80009D00FC01E080F18062E070E080E090E098
:100B90000E943708F801E192F1928F014AE050E09B
:100BA000B7018EEB92E00E94BE0C62E070E080E044
:100BB00090E00E9437082296C439D105F9F669E41D
:100BC00071E08EEB92E0DF91CF911F910F91FF903A
:100BD000EF900C94010C0E94890468EE73E080E0B1
:100BE00090E00E9437080C949105CF93DF9300D0DA
:100BF00000D0CDB7DEB780E00E949A080E94D60CE4
:100C000060E573EC80E090E00E94DE0C7C836B83F7
:100C10001A821982CE0101960E94B2006C8181E095
:100C200090E09A838983CE0101960E94B2000F90D2
:100C30000F900F900F90DF91CF910895CF92DF9298
:100C4000EF92FF920F931F93CF93DF9300D0CDB716
:100C5000DEB726E040E052EC61E070E08EEB92E01F
:100C60000E94910A64E170E087E692E00E94330DF1
:100C70006EE670E080E090E00E94370861E871E085
:100C80008EEB92E00E94010C6BE070E080E090E05F
:100C90000E94370860E0809121010E943F0961E0D5
:100CA000809129010E943F0961E0809127010E9403
:100CB0003F0961E0809125010E943F0960E0809139
:100CC0002B010E943F0961E080911D010E943F09B4
:100CD00061E080911F010E943F0961E0809129013C
:100CE0000E94780961E080911F010E94780960E00C
:100CF00080911D010E94780961E0809127010E9486
:100D0000780984E090E00E949D00FC01808191813F
:100D10000196E1F40E94EB050E94F50580E090E069
:100D20000E949D00FC01608171814AE050E08EEBE1
:100D300092E00E94BE0C8FE690E09A838983BE0108
:100D40006F5F7F4F84E090E00E94D20012EBE12EB3
:100D500011E0F12E06E610E0C8010E949D00FC01A2
:100D6000C080D18062E070E080E090E00E943708AF
:100D7000F701C192D1927F014AE050E0B6018EEBBB
:100D800092E00E94BE0C62E070E080E090E00E9481
:100D900037080E5F1F4F04391105F1F68AE090E025
:100DA0000E94FA009093B1018093B0010E945F0409
:100DB0008091B0019091B1019093AF018093AE0109
:100DC0008AE090E00E94FA009093B1018093B00114
:100DD00064EC79E080E090E00E94370861E871E01F
:100DE0008EEB92E00E94010C0E94080860936D0255
:100DF00070936E0280936F02909370020F900F9029
:100E0000DF91CF911F910F91FF90EF90DF90CF90E6
:100E1000089561E971E087E692E00E94700D61E952
:100E200071E081E692E00E94700D6BE871E088E568
:100E300092E00E94700D62E971E082E592E00E940A
:100E4000700D69E971E08CE492E00C94700D0C94E3
:100E50008900CF93DF93D1E08EEB92E00E94AE0940
:100E6000892B79F08EEB92E00E94C709C82F682F7A
:100E700087E692E00E94B20DCA3071F7D09360020B
:100E8000EBCFDF91CF9108951F920F920FB60F9283
:100E900011242F933F934F935F936F937F938F937F
:100EA0009F93AF93BF93EF93FF93E091B302F091C1
:100EB000B402309709F451C0868DA685B785958513
:100EC00081FF04C08C91892329F447C08C91892328
:100ED00009F043C0A389B4899C91858980958923B1
:100EE0008C93868997890197F1F7208D318DA6859E
:100EF000B785758558E040E0C9010197F1F7842F67
:100F000090E095958795482F6C91672309F040688C
:100F1000515091F7868D81FD40958091720290E04D
:100F200001968F73992720917102281749F0A0919B
:100F30007202B0E0AD58BD4F4C938093720203C073
:100F4000868D8160868F828D938D0197F1F7A389BD
:100F5000B4898C919589892B8C93FF91EF91BF91E6
:100F6000AF919F918F917F916F915F914F913F9141
:100F70002F910F900FBE0F901F9018951F920F92F8
:100F80000FB60F9211242F933F938F939F93AF939C
:100F9000BF938091B6029091B702A091B802B09130
:100FA000B9023091B50223E0230F2D3720F40196CA
:100FB000A11DB11D05C026E8230F0296A11DB11D7C
:100FC0002093B5028093B6029093B702A093B80223
:100FD000B093B9028091BA029091BB02A091BC0279
:100FE000B091BD020196A11DB11D8093BA029093EC
:100FF000BB02A093BC02B093BD02BF91AF919F9181
:101000008F913F912F910F900FBE0F901F901895C9
:101010002FB7F8946091B6027091B7028091B80230
:101020009091B9022FBF08953FB7F8948091BA020A
:101030009091BB02A091BC02B091BD0226B5A89BC5
:1010400005C02F3F19F00196A11DB11D3FBF6627B6
:10105000782F892F9A2F620F711D811D911D42E0FB
:10106000660F771F881F991F4A95D1F70895CF9271
:10107000DF92EF92FF92CF93DF936B017C010E948E
:101080001408EB01C114D104E104F10489F00E94B9
:10109000C50D0E9414086C1B7D0B683E734090F3D5
:1010A00081E0C81AD108E108F108C851DC4FEACF45
:1010B000DF91CF91FF90EF90DF90CF9008957894DB
:1010C00084B5826084BD84B5816084BD85B582604D
:1010D00085BD85B5816085BDEEE6F0E080818160EB
:1010E0008083E1E8F0E010828081826080838081EB
:1010F00081608083E0E8F0E0808181608083E1EBC3
:10110000F0E0808184608083E0EBF0E080818160AA
:101110008083EAE7F0E08081846080838081826060
:101120008083808181608083808180688083109249
:10113000C10008958E3008F08E50877020912D01E7
:1011400090E4299F90011124822B80937C00809150
:101150007A00806480937A0080917A0086FDFCCFCB
:10116000809178002091790090E0922B08951F9350
:10117000CF93DF93182FEB0161E00E943F09209786
:1011800011F460E004C0CF3FD10539F461E0812F54
:10119000DF91CF911F910C947809E12FF0E0E8598D
:1011A000FF4FE491E330F9F048F4E130B9F0E23078
:1011B000A1F584B5806284BDC8BD34C0E730E9F0D4
:1011C000E83019F1E43049F5809180008062809325
:1011D0008000D0938B00C0938A0024C084B58068BF
:1011E00084BDC7BD1FC0809180008068809380004F
:1011F000D0938900C093880015C08091B0008068AA
:101200008093B000C093B3000DC08091B0008062A5
:101210008093B000C093B40005C0C038D1050CF075
:10122000B5CFAFCFDF91CF911F910895833081F07B
:1012300028F4813099F08230A1F008958730A9F028
:101240008830B9F08430D1F4809180008F7D03C064
:10125000809180008F7780938000089584B58F7788
:1012600002C084B58F7D84BD08958091B0008F77D2
:1012700003C08091B0008F7D8093B0000895CF931C
:10128000DF9390E0FC01E458FF4F2491FC01E0570C
:10129000FF4F8491882349F190E0880F991FFC014A
:1012A000E255FF4FA591B4918C559F4FFC01C5911C
:1012B000D4919FB7611108C0F8948C912095822336
:1012C0008C93888182230AC0623051F4F8948C9107
:1012D000322F309583238C938881822B888304C09E
:1012E000F8948C91822B8C939FBFDF91CF910895BE
:1012F0000F931F93CF93DF931F92CDB7DEB7282FA5
:1013000030E0F901E859FF4F8491F901E458FF4FAB
:101310001491F901E057FF4F04910023C9F088238D
:1013200021F069830E9416096981E02FF0E0EE0F39
:10133000FF1FEC55FF4FA591B4919FB7F8948C9186
:10134000611103C01095812301C0812B8C939FBF35
:101350000F90DF91CF911F910F910895FC01818D26
:10136000228D90E0805C9F4F821B91098F7399279B
:101370000895FC01918D828D981731F0828DE80FD0
:10138000F11D858D90E008958FEF9FEF0895FC018A
:10139000918D828D981761F0828DDF01A80FB11DAC
:1013A0005D968C91928D9F5F9F73928F90E00895D0
:1013B0008FEF9FEF08958BE49BE0892B49F089E242
:1013C00097E0892B29F00E944B0B81110C9429077F
:1013D0000895FC01848DDF01A80FB11DA35ABF4FF2
:1013E0002C91848D90E001968F739927848FA68924
:1013F000B7892C93A089B1898C9180648C93938D4B
:10140000848D981306C00288F389E02D80818F7D3A
:1014100080830895CF93DF93EC01888D8823C9F0F2
:10142000EA89FB89808185FD05C0A889B9898C91ED
:1014300086FD0FC00FB607FCF5CF808185FFF2CF88
:10144000A889B9898C9185FFEDCFCE010E94E90969
:10145000E7CFDF91CF910895CF92DF92FF920F9364
:101460001F93CF93DF931F92CDB7DEB76C01DC01E2
:101470005B969C915B975C968C915C97981307C0E8
:101480005096ED91FC915197808185FD32C0F60117
:10149000038D10E00F5F1F4F0F731127F02EF60121
:1014A000848DF81211C00FB607FCF9CFD601509603
:1014B000ED91FC915197808185FFF1CFC601698341
:1014C0000E94E9096981EBCF838DE80FF11DE35A92
:1014D000FF4F6083D6015B960C935B975296ED911C
:1014E000FC91539780818062808381E058968C9331
:1014F0000DC0D6015696ED91FC915797608350969A
:10150000ED91FC91519780818064808381E090E02F
:101510000F90DF91CF911F910F91FF90DF90CF90AF
:101520000895BF92CF92DF92EF92FF92CF93DF9315
:10153000EC016A017B01B22EE889F98982E080839F
:10154000411581EE580761057105A1F060E079E071
:101550008DE390E0A70196010E94DA0D2150310938
:10156000410951095695479537952795211580E1F1
:10157000380798F0E889F989108260E874E88EE10C
:1015800090E0A70196010E94DA0D2150310941092E
:1015900051095695479537952795EC85FD853083FC
:1015A000EE85FF852083188EEC89FD89B082EA895B
:1015B000FB89808180618083EA89FB8980818860E2
:1015C0008083EA89FB89808180688083EA89FB893E
:1015D00080818F7D8083DF91CF91FF90EF90DF90AE
:1015E000CF90BF9008951F920F920FB60F921124C3
:1015F0002F938F939F93EF93FF93E091CE02F091FF
:10160000CF028081E091D402F091D50282FD12C018
:1016100090818091D7028F5F8F732091D8028217BB
:1016200051F0E091D702F0E0E254FD4F958F8093A6
:10163000D70201C08081FF91EF919F918F912F91EF
:101640000F900FBE0F901F9018951F920F920FB61C
:101650000F9211242F933F934F935F936F937F9338
:101660008F939F93AF93BF93EF93FF938EEB92E093
:101670000E94E909FF91EF91BF91AF919F918F91E6
:101680007F916F915F914F913F912F910F900FBE7E
:101690000F901F9018958EEB92E00E94AE0921E00A
:1016A000892B09F420E0822F08951092C102109234
:1016B000C00288EE93E0A0E0B0E08093C202909375
:1016C000C302A093C402B093C50282EA91E0909352
:1016D000BF028093BE0285EC90E09093CB02809392
:1016E000CA0284EC90E09093CD028093CC0280EC0F
:1016F00090E09093CF028093CE0281EC90E09093A3
:10170000D1028093D00282EC90E09093D302809338
:10171000D20286EC90E09093D5028093D40210928E
:10172000D7021092D8021092D9021092DA020895CC
:1017300008950E945F080E94980B0E941E06CBED40
:10174000D9E00E947C052097E1F30E94DB09F9CFE4
:10175000CF92DF92EF92FF920F931F93CF93DF937D
:101760006C017A01EB01E60EF71E00E010E0CE15E9
:10177000DF0561F06991D601ED91FC910190F08156
:10178000E02DC6010995080F191FF1CFC801DF919F
:10179000CF911F910F91FF90EF90DF90CF90089520
:1017A0006115710581F0DB010D900020E9F7AD01B5
:1017B00041505109461B570BDC01ED91FC91028011
:1017C000F381E02D099480E090E00895DC01ED9133
:1017D000FC910190F081E02D09940F931F93CF931A
:1017E000DF93EC016DE00E94E60B8C016AE0CE0114
:1017F0000E94E60B800F911FDF91CF911F910F91F7
:1018000008950F931F93CF93DF93EC010E94D00BA9
:101810008C01CE010E94ED0B800F911FDF91CF91C3
:101820001F910F9108958F929F92AF92BF92CF9286
:10183000DF92EF92FF920F931F93CF93DF93CDB779
:10184000DEB7A1970FB6F894DEBF0FBECDBF7C0107
:10185000C42EE52FCB01D22E19A221E02D1510F0B8
:101860002AE0D22E8E010F5D1F4F8D2C912CA12CC2
:10187000B12C6C2D7E2FA50194010E94DA0D8C2DC8
:10188000D29E80191124015011098A3014F4805D10
:1018900001C0895CF801808321153105410551059E
:1018A00021F0C22EE32FCA01E4CFB801C7010E9484
:1018B000D00BA1960FB6F894DEBF0FBECDBFDF915F
:1018C000CF911F910F91FF90EF90DF90CF90BF903D
:1018D000AF909F908F900895CF92DF92EF92FF92FA
:1018E0000F931F93CF93DF93EC016A017B012115C6
:1018F000310579F4E881F9810190F081E02D642FC0
:10190000DF91CF911F910F91FF90EF90DF90CF90DB
:1019100009942A303105E9F477FF1AC06DE20E947C
:10192000E60B8C0144275527BA014C195D096E0955
:101930007F092AE0CE010E94130C800F911FDF91D6
:10194000CF911F910F91FF90EF90DF90CF9008956E
:101950002AE0B701A601CE01DF91CF911F910F912F
:10196000FF90EF90DF90CF900C94130C9A01AB0195
:10197000662757FD6095762F0C946C0C0F931F9380
:10198000CF93DF93EC019A01AB01662757FD609579
:10199000762F0E946C0C8C01CE010E94ED0B800F03
:1019A000911FDF91CF911F910F910895009729F01A
:1019B000BC0180E090E00C94CA0F0895CF93DF93B0
:1019C00000D000D0CDB7DEB79B01AC016115710529
:1019D0008105910569F069833A834B835C830E949A
:1019E000C50F29813A814B815C810E94FC0D03C0A7
:1019F00060E070E0CB010F900F900F900F90DF919F
:101A0000CF910895FC01808191810C94E70ECF93D2
:101A1000DF93EC0188819981009711F00E94E70E15
:101A2000198218821D821C821B821A82DF91CF913B
:101A300008950F931F93CF93DF93EC018B016F5F9A
:101A40007F4F888199810E94D30F009731F099834D
:101A500088831B830A8381E001C080E0DF91CF91FE
:101A60001F910F910895CF93DF93EC0188819981A5
:101A7000892B29F08A819B818617970760F4CE0114
:101A80000E94190D882341F08C819D81892B19F4C6
:101A9000E881F981108281E0DF91CF910895EF9282
:101AA000FF920F931F93CF93DF93EC017B018A0189
:101AB000BA010E94330D811104C0CE010E94070DAE
:101AC00007C01D830C83B701888199810E94A610ED
:101AD000CE01DF91CF911F910F91FF90EF9008956C
:101AE000FC01118210821382128215821482611508
:101AF000710559F0FB0101900020E9F7AF01415059
:101B00005109461B570B0C944F0D0895EF92FF920D
:101B10000F931F93CF93DF93EC017B010C811D8109
:101B20006115710511F480E016C04115510591F061
:101B3000040F151FB8010E94330D8823A1F32881DB
:101B400039818C819D81B701820F931F0E94A6105D
:101B50001D830C8381E0DF91CF911F910F91FF9046
:101B6000EF900895CF93DF9300D0CDB7DEB76983B0
:101B70001A8241E050E0BE016F5F7F4F0E94860DE8
:101B80000F900F90DF91CF910895089597FB072E46
:101B900016F4009407D077FD09D00E94260E07FCAA
:101BA00005D03EF4909581959F4F0895709561956D
:101BB0007F4F0895A1E21A2EAA1BBB1BFD010DC089
:101BC000AA1FBB1FEE1FFF1FA217B307E407F507ED
:101BD00020F0A21BB30BE40BF50B661F771F881FC9
:101BE000991F1A9469F760957095809590959B015F
:101BF000AC01BD01CF010895052E97FB1EF40094A2
:101C00000E94130E57FD07D00E94DA0D07FC03D087
:101C10004EF40C94130E50954095309521953F4FFE
:101C20004F4F5F4F089590958095709561957F4FC8
:101C30008F4F9F4F08950E94400EA59F900DB49F17
:101C4000900DA49F800D911D11240895AA1BBB1B0C
:101C500051E107C0AA1FBB1FA617B70710F0A61BAC
:101C6000B70B881F991F5A95A9F780959095BC01CD
:101C7000CD010895EE0FFF1F0590F491E02D09941A
:101C8000A29FB001B39FC001A39F700D811D1124BD
:101C9000911DB29F700D811D1124911D0895CF9348
:101CA000DF938230910510F482E090E0E0915D03D3
:101CB000F0915E0320E030E0A0E0B0E0309739F131
:101CC0004081518148175907B8F04817590771F4F6
:101CD00082819381109729F013969C938E9312978B
:101CE0002CC090935E0380935D0327C021153105BE
:101CF00031F04217530718F0A901DB0101C0EF01D1
:101D00009A01BD01DF010280F381E02DD7CF2115BB
:101D10003105F9F0281B390B2430310580F48A8114
:101D20009B816115710521F0FB019383828304C0BF
:101D300090935E0380935D03FE01329644C0FE01E2
:101D4000E20FF31F81939193225031093983288345
:101D50003AC020915B0330915C03232B41F4209126
:101D600002013091030130935C0320935B032091C7
:101D70000001309101012115310541F42DB73EB725
:101D80004091040150910501241B350BE0915B0348
:101D9000F0915C03E217F307A0F42E1B3F0B28170A
:101DA000390778F0AC014E5F5F4F2417350748F0D4
:101DB0004E0F5F1F50935C0340935B03819391939D
:101DC00002C0E0E0F0E0CF01DF91CF910895CF9322
:101DD000DF93009709F487C0FC01329713821282C7
:101DE000C0915D03D0915E03209781F42081318101
:101DF000280F391F80915B0390915C038217930732
:101E000079F5F0935C03E0935B036DC0DE0120E0A5
:101E100030E0AE17BF0750F412964D915C911397C6
:101E20009D014115510509F1DA01F3CFB383A28376
:101E300040815181840F951F8A179B0771F48D9102
:101E40009C911197840F951F02969183808312961F
:101E50008D919C911397938382832115310529F4E9
:101E6000F0935E03E0935D033EC0D9011396FC93AB
:101E7000EE9312974D915D91A40FB51FEA17FB07E2
:101E800079F480819181840F951F0296D901119672
:101E90009C938E938281938113969C938E93129739
:101EA000E0E0F0E08A819B81009719F0FE01EC01EF
:101EB000F9CFCE01029628813981820F931F20919C
:101EC0005B0330915C032817390769F4309729F4D4
:101ED00010925E0310925D0302C013821282D093AF
:101EE0005C03C0935B03DF91CF9108958F929F9223
:101EF000AF92BF92CF92DF92EF92FF92CF93DF9398
:101F0000EC01688179818A819B8161157105810568
:101F1000910521F464E279ED8BE597E02DE133EF53
:101F200041E050E00E94FC0D49015A019B01AC01C7
:101F3000A7EAB1E40E941B0E6B017C01ACEEB4EF8A
:101F4000A50194010E94C610C60ED71EE81EF91EF8
:101F5000F7FE06C081E0C81AD108E10880E8F80A57
:101F6000C882D982EA82FB82C701B6019F77DF91DE
:101F7000CF91FF90EF90DF90CF90BF90AF909F9068
:101F80008F9008950E94760F089586E091E00E9458
:101F9000760F0895609306017093070180930801FE
:101FA000909309010895A0E0B0E0E9EDFFE00C9402
:101FB000CF10EC01CB01209719F40E944F0EB8C04E
:101FC000FE01E60FF71F9E0122503109E217F307C9
:101FD00008F4ACC0D9010D911C9111970617170791
:101FE000B8F00530110508F49FC0A801445051090C
:101FF0004617570708F498C002501109061B170B23
:10200000019311936D937C93CF010E94E70E8CC0D6
:102010005B01A01AB10A4E01800E911EA0915D03D2
:10202000B0915E03612C712C60E070E0109709F4B0
:1020300049C0A815B905C9F5ED90FC901197670145
:1020400042E0C40ED11CCA14DB0478F147018A189F
:102050009B08640142E0C40ED11C1296BC901297FA
:102060001396AC91B5E0CB16D10440F0B282A383B5
:1020700091828082D9018D939C9309C00E5F1F4F7E
:102080000E0D1F1DF90111830083EB2DFA2F611531
:10209000710531F0DB011396FC93EE93129744C067
:1020A000F0935E03E0935D033FC06D917C911197C7
:1020B0006616770608F43B01BD0112960D90BC919F
:1020C000A02DB4CF60915B0370915C036815790516
:1020D000E9F468167906D0F44091000150910101AD
:1020E0004115510541F44DB75EB7609104017091FF
:1020F0000501461B570BE417F507C0F4F0935C038A
:10210000E0935B03F901918380830EC00E944F0E20
:102110007C01009759F0A801BE010E949D10CE01DC
:102120000E94E70EC70104C0CE0102C080E090E02B
:10213000CDB7DEB7EEE00C94EB10FB01DC0102C082
:1021400001900D9241505040D8F70895FB01DC01F9
:1021500001900D920020E1F70895F999FECF92BD0C
:1021600081BDF89A992780B50895262FF999FECF59
:102170001FBA92BD81BD20BD0FB6F894FA9AF99AA4
:102180000FBE01960895B7FF0C941B0E0E941B0E04
:10219000821B930B08952F923F924F925F926F9202
:1021A0007F928F929F92AF92BF92CF92DF92EF92E7
:1021B000FF920F931F93CF93DF93CDB7DEB7CA1B68
:1021C000DB0B0FB6F894DEBF0FBECDBF09942A8893
:1021D000398848885F846E847D848C849B84AA843B
:1021E000B984C884DF80EE80FD800C811B81AA81C8
:1021F000B981CE0FD11D0FB6F894DEBF0FBECDBF93
:10220000ED01089510E0CCEBD0E004C0FE010E9487
:0E2210003C0E2296CE3BD107C9F7F894FFCFC3
:10221E0000005F0380000100000007001E00680040
:10222E0068000500010001F40160EA000006000AE2
:10223E000003001200050002001000040001302C03
:10224E00342C3233343536004175746F2043616C53
:10225E006962726174696F6E004175746F43616C6F
:10226E0020436F6D706C6574656400496E20546810
:10227E0065205A6F6E65004F7574206F6620746806
:10228E0065205A6F6E6500302C332C323334353660
:10229E0000302C322C32333435360047656F4F4BBD
:1022AE000A0047656F4E4F0A00302C322C0000009A
:0E22BE0000002C0AA80BAE09C709B9090A0ACC
:00000001FF
